:20000000F331FE7FAFD3FECDAB0021F402CDBE00AF010100ED79CD91001603CD9500160B94
:20002000CD95001600CD95001600CD9500210080CD9E00237DB420F80100003EFFED793E14
:200040008401FDDFED79AF01FD7FED792100C05FCD9E0077D3FE237DB420F57B3CFE0538F9
:20006000E6CD8C00AF01FD7FED7901FDDFED793E1F010000ED79AFD3FE215603CDBE003EE5
:2000800004010100ED7931FFFFC300003E01D303C9AFD303C9DB030738FB7AD302C916FF91
:2000A000CD9500DB030738FBDB02C921004011014001001875EDB006033607EDB0C97EFE1A
:2000C000112814FE172818FE182821FE192825B7C823CDFC0018E7237E32027F2318DF23C0
:2000E0007E32007F237E32017F2318D2237E32007F2318CA237E32017F2318C2E5D5C5FE4D
:200100000D283BD6204F2A007F7CE6070F0F0FB56F7CE618F640570F0F0FE603F658673ABB
:20012000027F775D6926002929290161030906087E12142310FA3A007F3CFE2020203A0185
:200140007F3CFE1820141100402120400617C5CDDD01CDD502C110F6180332017FAF320022
:200160007FC1D1E1C947E6F00F0F0F0FCD720178E60FFE0A3005C630C3FC00C637C3FC0010
:20018000DD21C501060826000E2F0C7BDD96005F7ADD9E01577DDD9E026F30EE7BDD86001F
:2001A0005F7ADD8E01577DDD8E026FDD23DD23DD237CB7200779FE303E202803792601CD53
:2001C000FC0010C4C980969840420FA08601102700E803006400000A0000010000E5D57A5B
:2001E0000F0F0FE603F658577C0F0F0FE603F65867EDA0EDA0EDA0EDA0EDA0EDA0EDA0ED35
:20020000A0EDA0EDA0EDA0EDA0EDA0EDA0EDA0EDA0EDA0EDA0EDA0EDA0EDA0EDA0EDA0ED0E
:20022000A0EDA0EDA0EDA0EDA0EDA0EDA0EDA0EDA0D1E101F800C33B022414EDA0EDA0EDCC
:20024000A0EDA0EDA0EDA0EDA0EDA0EDA0EDA0EDA0EDA0EDA0EDA0EDA0EDA0EDA0EDA0EDCE
:20026000A0EDA0EDA0EDA0EDA0EDA0EDA0EDA0EDA0EDA0EDA0EDA0EDA07E122414EDA8EDF8
:20028000A8EDA8EDA8EDA8EDA8EDA8EDA8EDA8EDA8EDA8EDA8EDA8EDA8EDA8EDA8EDA8ED0E
:2002A000A8EDA8EDA8EDA8EDA8EDA8EDA8EDA8EDA8EDA8EDA8EDA8EDA8EDA87E12EA390250
:2002C000C97DD6206FD07CD60867C97BD6205FD07AD60857C9247DD6E06FD07CD60867C9E1
:2002E000147BD6E05FD07AD60857C9AFDBFE2FE61F28F8C9170000112F526556657253459A
:200300002D553136204279204D56560D0D0D11074650474120436F7265202D204B6172610E
:200320006261732D343039360D286275696C64203230313930373139290D0D436F7079693E
:200340006E6720646174612066726F6D20464C4153482E2E2E00110420646F6E6511070D22
:200360000000000000000000000010101010001000002448000000000000227F22227F223B
:200380000000087E487F117F100062640810234300001028102A443A00001020000000000C
:2003A0000000081010101008000008040404040800000014083E0814000010107C1010009B
:2003C000000000000000101020000000007E000000000000000000100000020408102040D1
:2003E00000003E434D51613E000008180808087F00003E41013E407F00003E410E01413EFE
:2004000000000A1222427F0200007F407E01413E00003E407E41413E00007F0204080808C5
:2004200000003E413E41413E00003E41413F013E00000000080000080000000800000808D9
:200440001000000408100804000000007E007E00000000201008102000003E41010E00086A
:2004600000007E425E5E407E00003E4141417F4100007E417E41417E00003E414040413EC6
:2004800000007E414141417E00003F407E40403F00003F407E40404000003E41404F413E56
:2004A000000041417F41414100007F080808087F00003F010101413E0000424478444241D4
:2004C000000040404040403F0000416355494141000041615149454300003E414141413E95
:2004E00000007E4141417E4000003E414145423D00007E4141417E4100003E403E01413E3D
:2005000000007F0808080808000041414141413E0000414141221408000041414149493625
:20052000000041413E41414100004141413F013E00007F010638407F00003C202020203C82
:20054000000040201008040200003C040404043C000008142200000000000000000000FF58
:2005600000001E217820207F0000003E013F413F000040407E41417E0000003E4140413ECB
:20058000000001013F41413F0000003E417F403E00001E203C2020200000003F41413F0102
:2005A0003E0040407E414141000008001808083E00000100010101413E000041427C4241C9
:2005C000000018080808083E0000007E494949490000007E414141410000003E4141413E42
:2005E0000000007E41417E404000003F41413F010100003E404040400000003E403E017E82
:200600000000103C1010100E000000414141413E0000004141221408000000414149493604
:2006200000000041413E41410000004141413F013E00007F013E407F000004080830080866
:20064000040008080800080808002010100C10102000244800000000000103070F1F3F7F77
:20066000FF000000000000000000000000000000000000000000000000000000000000007B
:2006800000000000000000000000000000000000000000000000000000000000000000005A
:2006A00000000000000000000000000000000000000000000000000000000000000000003A
:2006C00000000000000000000000000000000000000000000000000000000000000000001A
:2006E0000000000000000000000000000000000000000000000000000000000000000000FA
:00000001FF
